{
  "_format": "hh-sol-artifact-1",
  "contractName": "MessageHub",
  "sourceName": "contracts/MessageHub.sol",
  "abi": [
    {
      "anonymous": false,
      "inputs": [
        {
          "indexed": false,
          "internalType": "string",
          "name": "name",
          "type": "string"
        },
        {
          "indexed": false,
          "internalType": "string",
          "name": "email",
          "type": "string"
        },
        {
          "indexed": false,
          "internalType": "string",
          "name": "message",
          "type": "string"
        }
      ],
      "name": "NewMessage",
      "type": "event"
    },
    {
      "anonymous": false,
      "inputs": [
        {
          "indexed": true,
          "internalType": "address",
          "name": "previousOwner",
          "type": "address"
        },
        {
          "indexed": true,
          "internalType": "address",
          "name": "newOwner",
          "type": "address"
        }
      ],
      "name": "OwnershipTransferred",
      "type": "event"
    },
    {
      "inputs": [],
      "name": "owner",
      "outputs": [
        {
          "internalType": "address",
          "name": "",
          "type": "address"
        }
      ],
      "stateMutability": "view",
      "type": "function"
    },
    {
      "inputs": [],
      "name": "renounceOwnership",
      "outputs": [],
      "stateMutability": "nonpayable",
      "type": "function"
    },
    {
      "inputs": [
        {
          "components": [
            {
              "internalType": "string",
              "name": "name",
              "type": "string"
            },
            {
              "internalType": "string",
              "name": "email",
              "type": "string"
            },
            {
              "internalType": "string",
              "name": "message",
              "type": "string"
            },
            {
              "internalType": "string",
              "name": "fax",
              "type": "string"
            }
          ],
          "internalType": "struct MessageHub.Message",
          "name": "_newMessage",
          "type": "tuple"
        }
      ],
      "name": "sendMessage",
      "outputs": [],
      "stateMutability": "nonpayable",
      "type": "function"
    },
    {
      "inputs": [
        {
          "internalType": "address",
          "name": "newOwner",
          "type": "address"
        }
      ],
      "name": "transferOwnership",
      "outputs": [],
      "stateMutability": "nonpayable",
      "type": "function"
    }
  ],
  "bytecode": "0x608060405234801561001057600080fd5b5061002d61002261003260201b60201c565b61003a60201b60201c565b6100fe565b600033905090565b60008060009054906101000a900473ffffffffffffffffffffffffffffffffffffffff169050816000806101000a81548173ffffffffffffffffffffffffffffffffffffffff021916908373ffffffffffffffffffffffffffffffffffffffff1602179055508173ffffffffffffffffffffffffffffffffffffffff168173ffffffffffffffffffffffffffffffffffffffff167f8be0079c531659141344cd1fd0a4f28419497f9722a3daafe3b4186f6b6457e060405160405180910390a35050565b6109c78061010d6000396000f3fe608060405234801561001057600080fd5b506004361061004c5760003560e01c806330d3a21714610051578063715018a61461006d5780638da5cb5b14610077578063f2fde38b14610095575b600080fd5b61006b60048036038101906100669190610576565b6100b1565b005b610075610187565b005b61007f61020f565b60405161008c91906106b0565b60405180910390f35b6100af60048036038101906100aa919061054d565b610238565b005b7fc5d2460186f7233c927e7db2dcc703c0e500b653ca82273b7bfad8045d85a47081606001516040516020016100e79190610699565b604051602081830303815290604052805190602001201461013d576040517f08c379a000000000000000000000000000000000000000000000000000000000815260040161013490610717565b60405180910390fd5b7fa8c2bc5d66b21af088d01c6b253c683b05fd4390104b06c51a8ea8002010b75381600001518260200151836040015160405161017c939291906106cb565b60405180910390a150565b61018f610330565b73ffffffffffffffffffffffffffffffffffffffff166101ad61020f565b73ffffffffffffffffffffffffffffffffffffffff1614610203576040517f08c379a00000000000000000000000000000000000000000000000000000000081526004016101fa90610757565b60405180910390fd5b61020d6000610338565b565b60008060009054906101000a900473ffffffffffffffffffffffffffffffffffffffff16905090565b610240610330565b73ffffffffffffffffffffffffffffffffffffffff1661025e61020f565b73ffffffffffffffffffffffffffffffffffffffff16146102b4576040517f08c379a00000000000000000000000000000000000000000000000000000000081526004016102ab90610757565b60405180910390fd5b600073ffffffffffffffffffffffffffffffffffffffff168173ffffffffffffffffffffffffffffffffffffffff161415610324576040517f08c379a000000000000000000000000000000000000000000000000000000000815260040161031b90610737565b60405180910390fd5b61032d81610338565b50565b600033905090565b60008060009054906101000a900473ffffffffffffffffffffffffffffffffffffffff169050816000806101000a81548173ffffffffffffffffffffffffffffffffffffffff021916908373ffffffffffffffffffffffffffffffffffffffff1602179055508173ffffffffffffffffffffffffffffffffffffffff168173ffffffffffffffffffffffffffffffffffffffff167f8be0079c531659141344cd1fd0a4f28419497f9722a3daafe3b4186f6b6457e060405160405180910390a35050565b600061040f61040a8461079c565b610777565b90508281526020810184848401111561042757600080fd5b610432848285610826565b509392505050565b6000813590506104498161097a565b92915050565b600082601f83011261046057600080fd5b81356104708482602086016103fc565b91505092915050565b60006080828403121561048b57600080fd5b6104956080610777565b9050600082013567ffffffffffffffff8111156104b157600080fd5b6104bd8482850161044f565b600083015250602082013567ffffffffffffffff8111156104dd57600080fd5b6104e98482850161044f565b602083015250604082013567ffffffffffffffff81111561050957600080fd5b6105158482850161044f565b604083015250606082013567ffffffffffffffff81111561053557600080fd5b6105418482850161044f565b60608301525092915050565b60006020828403121561055f57600080fd5b600061056d8482850161043a565b91505092915050565b60006020828403121561058857600080fd5b600082013567ffffffffffffffff8111156105a257600080fd5b6105ae84828501610479565b91505092915050565b6105c0816107f4565b82525050565b60006105d1826107cd565b6105db81856107d8565b93506105eb818560208601610835565b6105f4816108c8565b840191505092915050565b600061060a826107cd565b61061481856107e9565b9350610624818560208601610835565b80840191505092915050565b600061063d6020836107d8565b9150610648826108d9565b602082019050919050565b60006106606026836107d8565b915061066b82610902565b604082019050919050565b60006106836020836107d8565b915061068e82610951565b602082019050919050565b60006106a582846105ff565b915081905092915050565b60006020820190506106c560008301846105b7565b92915050565b600060608201905081810360008301526106e581866105c6565b905081810360208301526106f981856105c6565b9050818103604083015261070d81846105c6565b9050949350505050565b6000602082019050818103600083015261073081610630565b9050919050565b6000602082019050818103600083015261075081610653565b9050919050565b6000602082019050818103600083015261077081610676565b9050919050565b6000610781610792565b905061078d8282610868565b919050565b6000604051905090565b600067ffffffffffffffff8211156107b7576107b6610899565b5b6107c0826108c8565b9050602081019050919050565b600081519050919050565b600082825260208201905092915050565b600081905092915050565b60006107ff82610806565b9050919050565b600073ffffffffffffffffffffffffffffffffffffffff82169050919050565b82818337600083830152505050565b60005b83811015610853578082015181840152602081019050610838565b83811115610862576000848401525b50505050565b610871826108c8565b810181811067ffffffffffffffff821117156108905761088f610899565b5b80604052505050565b7f4e487b7100000000000000000000000000000000000000000000000000000000600052604160045260246000fd5b6000601f19601f8301169050919050565b7f4572726f723a204d65737361676520636f756c64206e6f742062652073656e74600082015250565b7f4f776e61626c653a206e6577206f776e657220697320746865207a65726f206160008201527f6464726573730000000000000000000000000000000000000000000000000000602082015250565b7f4f776e61626c653a2063616c6c6572206973206e6f7420746865206f776e6572600082015250565b610983816107f4565b811461098e57600080fd5b5056fea26469706673582212202f8ed3abe29a6e32a3131801b3079e0d57354a4390a645e725c517728b6196ab64736f6c63430008040033",
  "linkReferences": {},
  "deployedLinkReferences": {}
}