{
  "_format": "hh-sol-artifact-1",
  "contractName": "MessageHub",
  "sourceName": "contracts/MessageHub.sol",
  "abi": [
    {
      "anonymous": false,
      "inputs": [
        {
          "components": [
            {
              "internalType": "string",
              "name": "name",
              "type": "string"
            },
            {
              "internalType": "string",
              "name": "email",
              "type": "string"
            },
            {
              "internalType": "string",
              "name": "message",
              "type": "string"
            },
            {
              "internalType": "string",
              "name": "fax",
              "type": "string"
            }
          ],
          "indexed": false,
          "internalType": "struct MessageHub.Message",
          "name": "",
          "type": "tuple"
        }
      ],
      "name": "NewMessage",
      "type": "event"
    },
    {
      "anonymous": false,
      "inputs": [
        {
          "indexed": true,
          "internalType": "address",
          "name": "previousOwner",
          "type": "address"
        },
        {
          "indexed": true,
          "internalType": "address",
          "name": "newOwner",
          "type": "address"
        }
      ],
      "name": "OwnershipTransferred",
      "type": "event"
    },
    {
      "inputs": [],
      "name": "owner",
      "outputs": [
        {
          "internalType": "address",
          "name": "",
          "type": "address"
        }
      ],
      "stateMutability": "view",
      "type": "function"
    },
    {
      "inputs": [],
      "name": "renounceOwnership",
      "outputs": [],
      "stateMutability": "nonpayable",
      "type": "function"
    },
    {
      "inputs": [
        {
          "components": [
            {
              "internalType": "string",
              "name": "name",
              "type": "string"
            },
            {
              "internalType": "string",
              "name": "email",
              "type": "string"
            },
            {
              "internalType": "string",
              "name": "message",
              "type": "string"
            },
            {
              "internalType": "string",
              "name": "fax",
              "type": "string"
            }
          ],
          "internalType": "struct MessageHub.Message",
          "name": "_newMessage",
          "type": "tuple"
        }
      ],
      "name": "sendMessage",
      "outputs": [
        {
          "internalType": "bool",
          "name": "",
          "type": "bool"
        }
      ],
      "stateMutability": "nonpayable",
      "type": "function"
    },
    {
      "inputs": [
        {
          "internalType": "address",
          "name": "newOwner",
          "type": "address"
        }
      ],
      "name": "transferOwnership",
      "outputs": [],
      "stateMutability": "nonpayable",
      "type": "function"
    }
  ],
  "bytecode": "0x608060405234801561001057600080fd5b5061002d61002261003260201b60201c565b61003a60201b60201c565b6100fe565b600033905090565b60008060009054906101000a900473ffffffffffffffffffffffffffffffffffffffff169050816000806101000a81548173ffffffffffffffffffffffffffffffffffffffff021916908373ffffffffffffffffffffffffffffffffffffffff1602179055508173ffffffffffffffffffffffffffffffffffffffff168173ffffffffffffffffffffffffffffffffffffffff167f8be0079c531659141344cd1fd0a4f28419497f9722a3daafe3b4186f6b6457e060405160405180910390a35050565b6109cb8061010d6000396000f3fe608060405234801561001057600080fd5b506004361061004c5760003560e01c806330d3a21714610051578063715018a6146100815780638da5cb5b1461008b578063f2fde38b146100a9575b600080fd5b61006b60048036038101906100669190610551565b6100c5565b604051610078919061070a565b60405180910390f35b610089610162565b005b6100936101ea565b6040516100a091906106ef565b60405180910390f35b6100c360048036038101906100be9190610528565b610213565b005b60007fc5d2460186f7233c927e7db2dcc703c0e500b653ca82273b7bfad8045d85a47082606001516040516020016100fd91906106d8565b6040516020818303038152906040528051906020012014610121576000905061015d565b7fcda11bc1067e29e2b754dc6c8ddd10ef72984ed7fefe5fa7243f717bf27ea9c0826040516101509190610765565b60405180910390a1600190505b919050565b61016a61030b565b73ffffffffffffffffffffffffffffffffffffffff166101886101ea565b73ffffffffffffffffffffffffffffffffffffffff16146101de576040517f08c379a00000000000000000000000000000000000000000000000000000000081526004016101d590610745565b60405180910390fd5b6101e86000610313565b565b60008060009054906101000a900473ffffffffffffffffffffffffffffffffffffffff16905090565b61021b61030b565b73ffffffffffffffffffffffffffffffffffffffff166102396101ea565b73ffffffffffffffffffffffffffffffffffffffff161461028f576040517f08c379a000000000000000000000000000000000000000000000000000000000815260040161028690610745565b60405180910390fd5b600073ffffffffffffffffffffffffffffffffffffffff168173ffffffffffffffffffffffffffffffffffffffff1614156102ff576040517f08c379a00000000000000000000000000000000000000000000000000000000081526004016102f690610725565b60405180910390fd5b61030881610313565b50565b600033905090565b60008060009054906101000a900473ffffffffffffffffffffffffffffffffffffffff169050816000806101000a81548173ffffffffffffffffffffffffffffffffffffffff021916908373ffffffffffffffffffffffffffffffffffffffff1602179055508173ffffffffffffffffffffffffffffffffffffffff168173ffffffffffffffffffffffffffffffffffffffff167f8be0079c531659141344cd1fd0a4f28419497f9722a3daafe3b4186f6b6457e060405160405180910390a35050565b60006103ea6103e5846107ac565b610787565b90508281526020810184848401111561040257600080fd5b61040d848285610853565b509392505050565b6000813590506104248161097e565b92915050565b600082601f83011261043b57600080fd5b813561044b8482602086016103d7565b91505092915050565b60006080828403121561046657600080fd5b6104706080610787565b9050600082013567ffffffffffffffff81111561048c57600080fd5b6104988482850161042a565b600083015250602082013567ffffffffffffffff8111156104b857600080fd5b6104c48482850161042a565b602083015250604082013567ffffffffffffffff8111156104e457600080fd5b6104f08482850161042a565b604083015250606082013567ffffffffffffffff81111561051057600080fd5b61051c8482850161042a565b60608301525092915050565b60006020828403121561053a57600080fd5b600061054884828501610415565b91505092915050565b60006020828403121561056357600080fd5b600082013567ffffffffffffffff81111561057d57600080fd5b61058984828501610454565b91505092915050565b61059b81610815565b82525050565b6105aa81610827565b82525050565b60006105bb826107dd565b6105c581856107e8565b93506105d5818560208601610862565b6105de816108f5565b840191505092915050565b60006105f4826107dd565b6105fe818561080a565b935061060e818560208601610862565b80840191505092915050565b60006106276026836107f9565b915061063282610906565b604082019050919050565b600061064a6020836107f9565b915061065582610955565b602082019050919050565b6000608083016000830151848203600086015261067d82826105b0565b9150506020830151848203602086015261069782826105b0565b915050604083015184820360408601526106b182826105b0565b915050606083015184820360608601526106cb82826105b0565b9150508091505092915050565b60006106e482846105e9565b915081905092915050565b60006020820190506107046000830184610592565b92915050565b600060208201905061071f60008301846105a1565b92915050565b6000602082019050818103600083015261073e8161061a565b9050919050565b6000602082019050818103600083015261075e8161063d565b9050919050565b6000602082019050818103600083015261077f8184610660565b905092915050565b60006107916107a2565b905061079d8282610895565b919050565b6000604051905090565b600067ffffffffffffffff8211156107c7576107c66108c6565b5b6107d0826108f5565b9050602081019050919050565b600081519050919050565b600082825260208201905092915050565b600082825260208201905092915050565b600081905092915050565b600061082082610833565b9050919050565b60008115159050919050565b600073ffffffffffffffffffffffffffffffffffffffff82169050919050565b82818337600083830152505050565b60005b83811015610880578082015181840152602081019050610865565b8381111561088f576000848401525b50505050565b61089e826108f5565b810181811067ffffffffffffffff821117156108bd576108bc6108c6565b5b80604052505050565b7f4e487b7100000000000000000000000000000000000000000000000000000000600052604160045260246000fd5b6000601f19601f8301169050919050565b7f4f776e61626c653a206e6577206f776e657220697320746865207a65726f206160008201527f6464726573730000000000000000000000000000000000000000000000000000602082015250565b7f4f776e61626c653a2063616c6c6572206973206e6f7420746865206f776e6572600082015250565b61098781610815565b811461099257600080fd5b5056fea2646970667358221220a4a4ac1265a7fac04c9c93935e157f9a5fff6f3d99850e7f45b2d94465c9bc4864736f6c63430008040033",
  "linkReferences": {},
  "deployedLinkReferences": {}
}